{
  "_format": "hh-sol-artifact-1",
  "contractName": "TestLib_SecureMerkleTrie",
  "sourceName": "contracts/test-libraries/trie/TestLib_SecureMerkleTrie.sol",
  "abi": [
    {
      "inputs": [
        {
          "internalType": "bytes",
          "name": "_key",
          "type": "bytes"
        },
        {
          "internalType": "bytes",
          "name": "_proof",
          "type": "bytes"
        },
        {
          "internalType": "bytes32",
          "name": "_root",
          "type": "bytes32"
        }
      ],
      "name": "get",
      "outputs": [
        {
          "internalType": "bool",
          "name": "",
          "type": "bool"
        },
        {
          "internalType": "bytes",
          "name": "",
          "type": "bytes"
        }
      ],
      "stateMutability": "pure",
      "type": "function"
    },
    {
      "inputs": [
        {
          "internalType": "bytes",
          "name": "_key",
          "type": "bytes"
        },
        {
          "internalType": "bytes",
          "name": "_value",
          "type": "bytes"
        }
      ],
      "name": "getSingleNodeRootHash",
      "outputs": [
        {
          "internalType": "bytes32",
          "name": "",
          "type": "bytes32"
        }
      ],
      "stateMutability": "pure",
      "type": "function"
    },
    {
      "inputs": [
        {
          "internalType": "bytes",
          "name": "_key",
          "type": "bytes"
        },
        {
          "internalType": "bytes",
          "name": "_value",
          "type": "bytes"
        },
        {
          "internalType": "bytes",
          "name": "_proof",
          "type": "bytes"
        },
        {
          "internalType": "bytes32",
          "name": "_root",
          "type": "bytes32"
        }
      ],
      "name": "update",
      "outputs": [
        {
          "internalType": "bytes32",
          "name": "",
          "type": "bytes32"
        }
      ],
      "stateMutability": "pure",
      "type": "function"
    },
    {
      "inputs": [
        {
          "internalType": "bytes",
          "name": "_key",
          "type": "bytes"
        },
        {
          "internalType": "bytes",
          "name": "_value",
          "type": "bytes"
        },
        {
          "internalType": "bytes",
          "name": "_proof",
          "type": "bytes"
        },
        {
          "internalType": "bytes32",
          "name": "_root",
          "type": "bytes32"
        }
      ],
      "name": "verifyInclusionProof",
      "outputs": [
        {
          "internalType": "bool",
          "name": "",
          "type": "bool"
        }
      ],
      "stateMutability": "pure",
      "type": "function"
    }
  ],
  "bytecode": "0x60806040523480156200001c576000806200001962000023565b50505b5062000090565b632a2a7adb598160e01b8152600481016020815285602082015260005b868110156200005d57808601518282016040015260200162000040565b506020828760640184336000905af158600e01573d6000803e3d6000fd5b3d6001141558600a015760016000f35b505050565b61277b80620000a06000396000f3fe6080604052348015610019576000806100166123b0565b50505b50600436106100555760003560e01c8063120c4a221461006357806349fba1931461008d578063cd4a7695146100ad578063e8e72100146100c0575b6000806100606123b0565b50505b61007661007136600461254a565b6100e0565b6040516100849291906126be565b60405180910390f35b6100a061009b3660046124cf565b6100fb565b604051610084919061267d565b6100a06100bb3660046125ce565b610110565b6100d36100ce3660046125ce565b610129565b60405161008491906126b3565b600060606100ef858585610137565b91509150935093915050565b60006101078383610160565b90505b92915050565b600061011e85858585610178565b90505b949350505050565b600061011e8585858561019c565b600060606000610146866101b6565b90506101538186866101e7565b9250925050935093915050565b60008061016c846101b6565b905061012181846102c2565b600080610184866101b6565b9050610192818686866102e5565b9695505050505050565b6000806101a8866101b6565b905061019281868686610366565b606081805190602001206040516020016101d0919061267d565b60405160208183030381529060405290505b919050565b6000606060006101f685610397565b90506000806000610208848a89610475565b92509250925060008251159050808061021e5750815b6102775760405162461bcd60e51b815260206004820152601a60248201527f50726f76696465642070726f6f6620697320696e76616c69642e0000000000006044820152606401604051809103906102746123b0565b50505b6000816102915760405160208101604052600081526102b0565b6102b08660018703815181106102a357fe5b602002602001015161083c565b919b919a509098505050505050505050565b60006102d66102d084610859565b83610958565b51805190602001209392505050565b60006040516040808201905260018152600160ff1b60208201528051906020012082141561031e5761031785856102c2565b9050610121565b600061032984610397565b9050600080610339838987610475565b5091509150600061034d84848b858c610a05565b9050610359818a610de3565b9998505050505050505050565b60008060006103768786866101e7565b9150915081801561038c575061038c8682610f3c565b979650505050505050565b606060006103a483610f56565b9050600081516001600160401b03811180156103c8576000806103c56123b0565b50505b5060405190808252806020026020018201604052801561040257816020015b6103ef61241b565b8152602001906001900390816103e75790505b50905060005b825181101561046d57600061042f84838151811061042257fe5b6020026020010151610f69565b9050604051806040016040528082815260200161044b83610f56565b905283838151811061045957fe5b602090810291909101015250600101610408565b509392505050565b6000606081808061048587610859565b90508560008061049361241b565b60005b8c51811015610814578c81815181106104ab57fe5b6020026020010151600197909701969383019391508361052257848251805190602001201461051d5760405162461bcd60e51b8152602060048201526011602482015270092dcecc2d8d2c840e4dedee840d0c2e6d607b1b60448201526064016040518091039061051a6123b0565b50505b6105f2565b60208251511061058d57848251805190602001201461051d5760405162461bcd60e51b815260206004820152601b60248201527f496e76616c6964206c6172676520696e7465726e616c2068617368000000000060448201526064016040518091039061051a6123b0565b846105988351610ff7565b146105f25760405162461bcd60e51b815260206004820152601a60248201527f496e76616c696420696e7465726e616c206e6f646520686173680000000000006044820152606401604051809103906105ef6123b0565b50505b6011602083015151141561065b57855184141561060e57610814565b600086858151811061061c57fe5b602001015160f81c9050600060208401518260ff168151811061063b57fe5b6020026020010151905061064e8161103f565b965060019450505061080c565b600282602001515114156107b757600061067483611079565b905060008160008151811061068557fe5b602001015160f81c90506001811660020360006106a58460ff8416611097565b905060006106b38b8a611097565b905060006106c183836110c4565b905060ff8516600214806106d8575060ff85166003145b1561070a578083511480156106ed5750808251145b156106f757988901985b50600160ff1b9950610814945050505050565b60ff8516158061071d575060ff85166001145b1561076d578251811461073d5750600160ff1b9950610814945050505050565b61075e886020015160018151811061075157fe5b602002602001015161103f565b9a50975061080c945050505050565b60405162461bcd60e51b815260040180806020018281038252602681526020018061275560269139604001915050604051809103906107aa6123b0565b505050505050505061080c565b60405162461bcd60e51b815260206004820152601d60248201527f526563656976656420616e20756e706172736561626c65206e6f64652e0000006044820152606401604051809103906108096123b0565b50505b600101610496565b50600160ff1b8414866108278786611097565b909e909d50909b509950505050505050505050565b606061010a82602001516001846020015151038151811061042257fe5b6060600082516002026001600160401b03811180156108805760008061087d6123b0565b50505b50604051818152601f19601f83011681016020016040529080156108ab576020820181803683370190505b50905060005b83518110156109515760048482815181106108c857fe5b60200101516001600160f81b031916901c8260028302815181106108e857fe5b60200101906001600160f81b031916908160001a905350601084828151811061090d57fe5b602001015160f81c8161091c57fe5b0660f81b82826002026001018151811061093257fe5b60200101906001600160f81b031916908160001a9053506001016108b1565b5092915050565b61096061241b565b6000600260405190808252806020026020018201604052801561099757816020015b60608152602001906001900390816109825790505b50905060006109a7856001611124565b90506109ba6109b582611287565b61135e565b826000815181106109c757fe5b60200260200101819052506109db8461135e565b826001815181106109e857fe5b60200260200101819052506109fc826113c7565b95945050505050565b606082600087600019880181518110610a1a57fe5b602002602001015190506000610a2f826113ff565b905060006003604051908082528060200260200182016040528015610a6e57816020015b610a5b61241b565b815260200190600190039081610a535790505b5090506000806002846002811115610a8257fe5b1415610b4d576000808d511115610b085760005b60018e5103811015610b06576000610ac08f8381518110610ab357fe5b60200260200101516113ff565b6002811115610acb57fe5b1415610adc57600190910190610afe565b610af88e8281518110610aeb57fe5b60200260200101516114e0565b51820191505b600101610a96565b505b610b11866114e0565b51610b35610b1e886114e0565b610b30610b2a8f610859565b85611097565b6110c4565b148015610b4157508651155b15610b4b57600191505b505b8015610b8757610b65610b5f866114e0565b89610958565b838381518110610b7157fe5b6020026020010181905250600182019150610dc4565b6000846002811115610b9557fe5b1415610bfe578551610bcd57610bab85896114f3565b838381518110610bb757fe5b6020026020010181905250600182019150610bf9565b84838381518110610bda57fe5b6020026020010181905250600182019150610b65610b5f876001611097565b610dc4565b6000610c09866114e0565b90506000610c1782896110c4565b90508015610c78576000610c2d83600084611541565b9050610c4181610c3c8d6116aa565b6116eb565b868681518110610c4d57fe5b6020026020010181905250600185019450610c688383611097565b9250610c748983611097565b9850505b6000610c8261173a565b90508251610ca357610c9c81610c978a61083c565b6114f3565b9050610d38565b600083600081518110610cb257fe5b602001015160f81c9050610cc7846001611097565b93506002886002811115610cd757fe5b1415610d0f576000610cf185610cec8c61083c565b610958565b9050610d078383610d0284516116aa565b6117cf565b925050610d36565b835115610d25576000610cf185610c3c8c61083c565b610d338282610d028c61083c565b91505b505b8851610d6d57610d48818c6114f3565b905080868681518110610d5757fe5b6020026020010181905250600185019450610dc0565b610d78896001611097565b985080868681518110610d8757fe5b6020026020010181905250600185019450610da2898c610958565b868681518110610dae57fe5b60200260200101819052506001850194505b5050505b610dd38c60018d038585611828565b9c9b505050505050505050505050565b600080610def83610859565b9050610df961241b565b600060606000875190505b8015610f2757876001820381518110610e1957fe5b60200260200101519350610e2c846113ff565b92506002836002811115610e3c57fe5b1415610e67576000610e4d856114e0565b9050610e5f8660008351895103611541565b955050610f12565b6001836002811115610e7557fe5b1415610eb7576000610e86856114e0565b9050610e988660008351895103611541565b9550600083511115610eb157610eae8584611913565b94505b50610f12565b6000836002811115610ec557fe5b1415610f1257600082511115610f1257600085600187510381518110610ee757fe5b602001015160f81c9050610f018660006001825103611541565b9550610f0e8582856117cf565b9450505b610f1c84516116aa565b915060001901610e04565b50825180519060200120979650505050505050565b600081805190602001208380519060200120149392505050565b606061010a610f64836119ca565b6119f2565b60606000806000610f7985611b7e565b919450925090506000816001811115610f8e57fe5b14610fe85760405162461bcd60e51b815260206004820152601860248201527f496e76616c696420524c502062797465732076616c75652e0000000000000000604482015260640160405180910390610fe56123b0565b50505b6109fc85602001518484611ed9565b6000602082511015611013576000602083015191506101e29050565b60208201825160208110156110305760008061102d6123b0565b50505b81019080805195945050505050565b6000606060208351101561105d5761105683611f8a565b9050611069565b61106683610f69565b90505b61107281610ff7565b9392505050565b606061010a611092836020015160008151811061042257fe5b610859565b6060825182106110b6576040516020810160405260008152905061010a565b610107838384865103611541565b6000805b8084511180156110d85750808351115b801561111757508281815181106110eb57fe5b60200101516001600160f81b03191684828151811061110657fe5b60200101516001600160f81b031916145b15610107576001016110c8565b6060600082611134576000611137565b60025b90506000600285518161114657fe5b06905060008160020360ff166001600160401b03811180156111705760008061116d6123b0565b50505b50604051818152601f19601f830116810160200160405290801561119b576020820181803683370190505b50905081830160f81b816000815181106111b157fe5b60200101906001600160f81b031916908160001a90535080866040516020018083805190602001908083835b602083106111fc5780518252601f1990920191602091820191016111dd565b6001836020036101000a038019825116818451161790925250505091909101905082805190602001908083835b602083106112485780518252601f199092019160209182019101611229565b6001836020036101000a038019825116818451161790925250505091909101935060409250505051602081830303815290604052935050505092915050565b60606000600283518161129657fe5b046001600160401b03811180156112b5576000806112b26123b0565b50505b50604051818152601f19601f83011681016020016040529080156112e0576020820181803683370190505b50905060005b81518110156109515783816002026001018151811061130157fe5b60200101516001600160f81b031916600485600284028151811061132157fe5b60200101516001600160f81b031916901b1782828151811061133f57fe5b60200101906001600160f81b031916908160001a9053506001016112e6565b60608082516001148015611386575060808360008151811061137c57fe5b602001015160f81c105b1561139257508161010a565b61139e83516080611f95565b836040516020016113b0929190612686565b604051602081830303815290604052905092915050565b6113cf61241b565b60006113da836120fe565b905060405180604001604052808281526020016113f683610f56565b90529392505050565b600060116020830151511415611417575060006101e2565b6002826020015151141561149357600061143083611079565b905060008160008151811061144157fe5b602001015160f81c9050600281148061145d575060ff81166003145b1561146d576002925050506101e2565b60ff81161580611480575060ff81166001145b15611490576001925050506101e2565b50505b60405162461bcd60e51b8152602060048201526011602482015270496e76616c6964206e6f6465207479706560781b6044820152606401604051809103906114d96123b0565b5050919050565b606061010a6114ee83611079565b612142565b6114fb61241b565b60006115068361135e565b9050611511816119ca565b84602001516001866020015151038151811061152957fe5b6020026020010181905250610121846020015161218b565b60608182601f0110156115945760405162461bcd60e51b815260206004820152600e60248201526d736c6963655f6f766572666c6f7760901b6044820152606401604051809103906115916123b0565b50505b8282840110156115e45760405162461bcd60e51b815260206004820152600e60248201526d736c6963655f6f766572666c6f7760901b6044820152606401604051809103906115e16123b0565b50505b818301845110156116385760405162461bcd60e51b8152602060048201526011602482015270736c6963655f6f75744f66426f756e647360781b6044820152606401604051809103906116356123b0565b50505b60608215801561165757604051915060008252602082016040526116a1565b6040519150601f8416801560200281840101858101878315602002848b0101015b81831015611690578051835260209283019201611678565b5050858452601f01601f1916604052505b50949350505050565b60606020825110156116bd5750806101e2565b81805190602001206040516020018082815260200191505060405160208183030381529060405290506101e2565b6116f361241b565b6000600260405190808252806020026020018201604052801561172a57816020015b60608152602001906001900390816117155790505b50905060006109a7856000611124565b61174261241b565b6000601160405190808252806020026020018201604052801561177957816020015b60608152602001906001900390816117645790505b50905060005b81518110156117bf576040516040808201905260018152600160ff1b60208201528282815181106117ac57fe5b602090810291909101015260010161177f565b506117c9816113c7565b91505090565b6117d761241b565b600060208351106117f0576117eb8361135e565b6117f2565b825b90506117fd816119ca565b85602001518560ff168151811061181057fe5b60200260200101819052506109fc856020015161218b565b606060008285016001600160401b038111801561184d5760008061184a6123b0565b50505b5060405190808252806020026020018201604052801561188757816020015b61187461241b565b81526020019060019003908161186c5790505b50905060005b858110156118c8578681815181106118a157fe5b60200260200101518282815181106118b557fe5b602090810291909101015260010161188d565b5060005b83811015611909578481815181106118e057fe5b602002602001015182878301815181106118f657fe5b60209081029190910101526001016118cc565b5095945050505050565b61191b61241b565b6000600260405190808252806020026020018201604052801561195257816020015b606081526020019060019003908161193d5790505b509050600061196a611963866114e0565b6000611124565b90506119786109b582611287565b8260008151811061198557fe5b60200260200101819052506020845110156119b85783826001815181106119a857fe5b60200260200101819052506119c1565b6109db8461135e565b6109fc826113c7565b6119d2612432565b602082016040518060400160405280845181526020019190915292915050565b6060600080611a0084611b7e565b91935090915060019050816001811115611a1657fe5b14611a705760405162461bcd60e51b815260206004820152601760248201527f496e76616c696420524c50206c6973742076616c75652e000000000000000000604482015260640160405180910390611a6d6123b0565b50505b60006020604051908082528060200260200182016040528015611aad57816020015b611a9a612432565b815260200190600190039081611a925790505b5090506000835b8651811015611b735760208210611b055760405162461bcd60e51b815260040180806020018281038252602a81526020018061272b602a913960400191505060405180910390611b026123b0565b50505b600080611b2d6040516040808201905280858c51038152602001858c60200151019052611b7e565b509150915060405180604001604052808383018152602001848b60200151019052858581518110611b5a57fe5b6020908102919091010152600193909301920101611ab4565b508152949350505050565b6000808080845111611bdf5760405162461bcd60e51b815260206004820152601860248201527f524c50206974656d2063616e6e6f74206265206e756c6c2e0000000000000000604482015260640160405180910390611bdc6123b0565b50505b6000846020015190506000815160001a9050607f8111611c0c576000600160009450945094505050611ed2565b60b78111611c8857607f19810180875111611c765760405162461bcd60e51b815260206004820152601960248201527f496e76616c696420524c502073686f727420737472696e672e00000000000000604482015260640160405180910390611c736123b0565b50505b60019550935060009250611ed2915050565b60bf8111611d785760b619810180875111611cf25760405162461bcd60e51b815260206004820152601f60248201527f496e76616c696420524c50206c6f6e6720737472696e67206c656e6774682e00604482015260640160405180910390611cef6123b0565b50505b6000816020036101000a6001850151049050818101885111611d635760405162461bcd60e51b815260206004820152601860248201527f496e76616c696420524c50206c6f6e6720737472696e672e0000000000000000604482015260640160405180910390611d606123b0565b50505b60019091019550935060009250611ed2915050565b60f78111611df35760bf19810180875111611de25760405162461bcd60e51b815260206004820152601760248201527f496e76616c696420524c502073686f7274206c6973742e000000000000000000604482015260640160405180910390611ddf6123b0565b50505b600195509350849250611ed2915050565b60f619810180875111611e555760405162461bcd60e51b815260206004820152601d60248201527f496e76616c696420524c50206c6f6e67206c697374206c656e6774682e000000604482015260640160405180910390611e526123b0565b50505b6000816020036101000a6001850151049050818101885111611ebf5760405162461bcd60e51b815260206004820152601660248201527524b73b30b634b210292628103637b733903634b9ba1760511b604482015260640160405180910390611ebc6123b0565b50505b6001918201965094509250611ed2915050565b9193909250565b60606000826001600160401b0381118015611efc57600080611ef96123b0565b50505b50604051818152601f19601f8301168101602001604052908015611f27576020820181803683370190505b5090508051611f37579050611072565b8484016020820160005b60208604811015611f62578251825260209283019290910190600101611f41565b50600019601f86166020036101000a0180825116811984511617909152509095945050505050565b606061010a8261223d565b6060806038841015611fff576001604051818152601f19601f8301168101602001604052908015611fcd576020820181803683370190505b50905082840160f81b81600081518110611fe357fe5b60200101906001600160f81b031916908160001a905350610107565b600060015b80868161200d57fe5b04156120225760019091019061010002612004565b816001016001600160401b0381118015612044576000806120416123b0565b50505b50604051818152601f19601f830116810160200160405290801561206f576020820181803683370190505b50925084820160370160f81b8360008151811061208857fe5b60200101906001600160f81b031916908160001a905350600190505b8181116120f4576101008183036101000a87816120bd57fe5b04816120c557fe5b0660f81b8382815181106120d557fe5b60200101906001600160f81b031916908160001a9053506001016120a4565b5050905092915050565b6060600061210b83612250565b9050612119815160c0611f95565b8160405160200161212b929190612686565b604051602081830303815290604052915050919050565b606060028260008151811061215357fe5b602001015160f81c8161216257fe5b0660ff166000141561218057612179826002611097565b90506101e2565b612179826001611097565b61219361241b565b600082516001600160401b03811180156121b5576000806121b26123b0565b50505b506040519080825280602002602001820160405280156121e957816020015b60608152602001906001900390816121d45790505b50905060005b83518110156122335761221484828151811061220757fe5b6020026020010151611f8a565b82828151811061222057fe5b60209081029190910101526001016121ef565b50611072816113c7565b606061010a826020015160008451611ed9565b6060815161228c576000604051818152601f19601f8301168101602001604052908015612284576020820181803683370190505b5090506101e2565b6000805b83518110156122ba578381815181106122a557fe5b60200260200101515190910190600101612290565b6000826001600160401b03811180156122db576000806122d86123b0565b50505b50604051818152601f19601f8301168101602001604052908015612306576020820181803683370190505b50600092509050602081015b85518310156116a157600086848151811061232957fe5b60200260200101519050602081016123438382845161236a565b87858151811061234f57fe5b60200260200101515160019095019490920191506123129050565b8282825b6020811061238e57815183526020928301929190910190601f190161236e565b60001960208290036101000a0180198351168185511617909352505050505050565b632a2a7adb598160e01b8152600481016020815285602082015260005b868110156123e85780860151828201604001526020016123cd565b506020828760640184336000905af158600e01573d6000803e3d6000fd5b3d6001141558600a015760016000f35b505050565b604051604080820190526060808252602082015290565b604051604080820190526000808252602082015290565b600082601f83011261246257808161245f6123b0565b50505b81356001600160401b038082111561247657fe5b604051601f8301601f19168101602001828111828210171561249457fe5b6040528281528483016020018610156124b45783846124b16123b0565b50505b82602086016020830137918201602001929092529392505050565b600080604083850312156124ea5781826124e76123b0565b50505b82356001600160401b03808211156125095783846125066123b0565b50505b61251586838701612449565b935060208501359150808211156125335782836125306123b0565b50505b5061254085828601612449565b9150509250929050565b6000806000606084860312156125675780816125646123b0565b50505b83356001600160401b03808211156125865782836125836123b0565b50505b61259287838801612449565b945060208601359150808211156125b05782836125ad6123b0565b50505b506125bd86828701612449565b925050604084013590509250925092565b600080600080608085870312156125ec5780816125e96123b0565b50505b84356001600160401b038082111561260b5782836126086123b0565b50505b61261788838901612449565b955060208701359150808211156126355782836126326123b0565b50505b61264188838901612449565b9450604087013591508082111561265f57828361265c6123b0565b50505b5061266c87828801612449565b949793965093946060013593505050565b90815260200190565b600083516126988184602088016126fa565b820183516126aa8183602088016126fa565b01949350505050565b901515815260200190565b600083151582526040602083015282518060408401526126e58160608501602087016126fa565b601f01601f1916919091016060019392505050565b60005b838110156127155780820151838201526020016126fd565b83811115612724576000848401525b5050505056fe50726f766964656420524c50206c6973742065786365656473206d6178206c697374206c656e6774682e52656365697665642061206e6f6465207769746820616e20756e6b6e6f776e20707265666978",
  "linkReferences": {},
  "deployedLinkReferences": {}
}