{
  "_format": "hh-sol-artifact-1",
  "contractName": "TestLib_MerkleTrie",
  "sourceName": "contracts/test-libraries/trie/TestLib_MerkleTrie.sol",
  "abi": [
    {
      "inputs": [
        {
          "internalType": "bytes",
          "name": "_key",
          "type": "bytes"
        },
        {
          "internalType": "bytes",
          "name": "_proof",
          "type": "bytes"
        },
        {
          "internalType": "bytes32",
          "name": "_root",
          "type": "bytes32"
        }
      ],
      "name": "get",
      "outputs": [
        {
          "internalType": "bool",
          "name": "",
          "type": "bool"
        },
        {
          "internalType": "bytes",
          "name": "",
          "type": "bytes"
        }
      ],
      "stateMutability": "pure",
      "type": "function"
    },
    {
      "inputs": [
        {
          "internalType": "bytes",
          "name": "_key",
          "type": "bytes"
        },
        {
          "internalType": "bytes",
          "name": "_value",
          "type": "bytes"
        }
      ],
      "name": "getSingleNodeRootHash",
      "outputs": [
        {
          "internalType": "bytes32",
          "name": "",
          "type": "bytes32"
        }
      ],
      "stateMutability": "pure",
      "type": "function"
    },
    {
      "inputs": [
        {
          "internalType": "bytes",
          "name": "_key",
          "type": "bytes"
        },
        {
          "internalType": "bytes",
          "name": "_value",
          "type": "bytes"
        },
        {
          "internalType": "bytes",
          "name": "_proof",
          "type": "bytes"
        },
        {
          "internalType": "bytes32",
          "name": "_root",
          "type": "bytes32"
        }
      ],
      "name": "update",
      "outputs": [
        {
          "internalType": "bytes32",
          "name": "",
          "type": "bytes32"
        }
      ],
      "stateMutability": "pure",
      "type": "function"
    },
    {
      "inputs": [
        {
          "internalType": "bytes",
          "name": "_key",
          "type": "bytes"
        },
        {
          "internalType": "bytes",
          "name": "_value",
          "type": "bytes"
        },
        {
          "internalType": "bytes",
          "name": "_proof",
          "type": "bytes"
        },
        {
          "internalType": "bytes32",
          "name": "_root",
          "type": "bytes32"
        }
      ],
      "name": "verifyInclusionProof",
      "outputs": [
        {
          "internalType": "bool",
          "name": "",
          "type": "bool"
        }
      ],
      "stateMutability": "pure",
      "type": "function"
    }
  ],
  "bytecode": "0x60806040523480156200001c576000806200001962000023565b50505b5062000090565b632a2a7adb598160e01b8152600481016020815285602082015260005b868110156200005d57808601518282016040015260200162000040565b506020828760640184336000905af158600e01573d6000803e3d6000fd5b3d6001141558600a015760016000f35b505050565b612b4980620000a06000396000f3fe608060405234801561001957600080610016612a10565b50505b50600436106100555760003560e01c8063120c4a221461006357806349fba1931461024b578063cd4a7695146103c3578063e8e72100146105ca575b600080610060612a10565b50505b6101cb600480360360608110156100825760008061007f612a10565b50505b810190602081018135600160201b8111156100a5576000806100a2612a10565b50505b8201836020820111156100c0576000806100bd612a10565b50505b803590602001918460018302840111600160201b831117156100ea576000806100e7612a10565b50505b91908080601f01602080910402602001604051908101604052818152929190602084018383808284376000920191909152509295949360208101935035915050600160201b81111561014457600080610141612a10565b50505b82018360208201111561015f5760008061015c612a10565b50505b803590602001918460018302840111600160201b8311171561018957600080610186612a10565b50505b91908080601f016020809104026020016040519081016040528181529291906020840183838082843760009201919091525092955050913592506107e5915050565b604051821515815260406020820181815290820183818151815260200191508051906020019080838360005b8381101561020f5780820151838201526020016101f7565b50505050905090810190601f16801561023c5780820380516001836020036101000a031916815260200191505b50935050505060405180910390f35b6103b16004803603604081101561026a57600080610267612a10565b50505b810190602081018135600160201b81111561028d5760008061028a612a10565b50505b8201836020820111156102a8576000806102a5612a10565b50505b803590602001918460018302840111600160201b831117156102d2576000806102cf612a10565b50505b91908080601f01602080910402602001604051908101604052818152929190602084018383808284376000920191909152509295949360208101935035915050600160201b81111561032c57600080610329612a10565b50505b82018360208201111561034757600080610344612a10565b50505b803590602001918460018302840111600160201b831117156103715760008061036e612a10565b50505b91908080601f0160208091040260200160405190810160405281815292919060208401838380828437600092019190915250929550610800945050505050565b60405190815260200160405180910390f35b6103b1600480360360808110156103e2576000806103df612a10565b50505b810190602081018135600160201b81111561040557600080610402612a10565b50505b8201836020820111156104205760008061041d612a10565b50505b803590602001918460018302840111600160201b8311171561044a57600080610447612a10565b50505b91908080601f01602080910402602001604051908101604052818152929190602084018383808284376000920191909152509295949360208101935035915050600160201b8111156104a4576000806104a1612a10565b50505b8201836020820111156104bf576000806104bc612a10565b50505b803590602001918460018302840111600160201b831117156104e9576000806104e6612a10565b50505b91908080601f01602080910402602001604051908101604052818152929190602084018383808284376000920191909152509295949360208101935035915050600160201b81111561054357600080610540612a10565b50505b82018360208201111561055e5760008061055b612a10565b50505b803590602001918460018302840111600160201b8311171561058857600080610585612a10565b50505b91908080601f01602080910402602001604051908101604052818152929190602084018383808284376000920191909152509295505091359250610815915050565b6107d1600480360360808110156105e9576000806105e6612a10565b50505b810190602081018135600160201b81111561060c57600080610609612a10565b50505b82018360208201111561062757600080610624612a10565b50505b803590602001918460018302840111600160201b831117156106515760008061064e612a10565b50505b91908080601f01602080910402602001604051908101604052818152929190602084018383808284376000920191909152509295949360208101935035915050600160201b8111156106ab576000806106a8612a10565b50505b8201836020820111156106c6576000806106c3612a10565b50505b803590602001918460018302840111600160201b831117156106f0576000806106ed612a10565b50505b91908080601f01602080910402602001604051908101604052818152929190602084018383808284376000920191909152509295949360208101935035915050600160201b81111561074a57600080610747612a10565b50505b82018360208201111561076557600080610762612a10565b50505b803590602001918460018302840111600160201b8311171561078f5760008061078c612a10565b50505b91908080601f0160208091040260200160405190810160405281815292919060208401838380828437600092019190915250929550509135925061082e915050565b604051901515815260200160405180910390f35b600060606107f485858561083c565b91509150935093915050565b600061080c8383610917565b90505b92915050565b60006108238585858561093a565b90505b949350505050565b6000610823858585856109bb565b60006060600061084b856109ec565b9050600080600061085d848a89610acd565b9250925092506000825115905080806108735750815b6108cc5760405162461bcd60e51b815260206004820152601a60248201527f50726f76696465642070726f6f6620697320696e76616c69642e0000000000006044820152606401604051809103906108c9612a10565b50505b6000816108e6576040516020810160405260008152610905565b6109058660018703815181106108f857fe5b6020026020010151610e94565b919b919a509098505050505050505050565b600061092b61092584610eb1565b83610fb1565b51805190602001209392505050565b60006040516040808201905260018152600160ff1b6020820152805190602001208214156109735761096c8585610917565b9050610826565b600061097e846109ec565b905060008061098e838987610acd565b509150915060006109a284848b858c61105e565b90506109ae818a61143c565b9998505050505050505050565b60008060006109cb87868661083c565b915091508180156109e157506109e18682611595565b979650505050505050565b606060006109f9836115af565b90506000815167ffffffffffffffff81118015610a1e57600080610a1b612a10565b50505b50604051908082528060200260200182016040528015610a5857816020015b610a45612a7b565b815260200190600190039081610a3d5790505b50905060005b8251811015610ac3576000610a85848381518110610a7857fe5b60200260200101516115c2565b90506040518060400160405280828152602001610aa1836115af565b9052838381518110610aaf57fe5b602090810291909101015250600101610a5e565b509150505b919050565b60006060818080610add87610eb1565b905085600080610aeb612a7b565b60005b8c51811015610e6c578c8181518110610b0357fe5b60200260200101516001979097019693830193915083610b7a578482518051906020012014610b755760405162461bcd60e51b8152602060048201526011602482015270092dcecc2d8d2c840e4dedee840d0c2e6d607b1b604482015260640160405180910390610b72612a10565b50505b610c4a565b602082515110610be5578482518051906020012014610b755760405162461bcd60e51b815260206004820152601b60248201527f496e76616c6964206c6172676520696e7465726e616c20686173680000000000604482015260640160405180910390610b72612a10565b84610bf08351611650565b14610c4a5760405162461bcd60e51b815260206004820152601a60248201527f496e76616c696420696e7465726e616c206e6f64652068617368000000000000604482015260640160405180910390610c47612a10565b50505b60116020830151511415610cb3578551841415610c6657610e6c565b6000868581518110610c7457fe5b602001015160f81c9050600060208401518260ff1681518110610c9357fe5b60200260200101519050610ca681611698565b9650600194505050610e64565b60028260200151511415610e0f576000610ccc836116d2565b9050600081600081518110610cdd57fe5b602001015160f81c9050600181166002036000610cfd8460ff84166116f0565b90506000610d0b8b8a6116f0565b90506000610d19838361171d565b905060ff851660021480610d30575060ff85166003145b15610d6257808351148015610d455750808251145b15610d4f57988901985b50600160ff1b9950610e6c945050505050565b60ff85161580610d75575060ff85166001145b15610dc55782518114610d955750600160ff1b9950610e6c945050505050565b610db68860200151600181518110610da957fe5b6020026020010151611698565b9a509750610e64945050505050565b60405162461bcd60e51b8152600401808060200182810382526026815260200180612b236026913960400191505060405180910390610e02612a10565b5050505050505050610e64565b60405162461bcd60e51b815260206004820152601d60248201527f526563656976656420616e20756e706172736561626c65206e6f64652e000000604482015260640160405180910390610e61612a10565b50505b600101610aee565b50600160ff1b841486610e7f87866116f0565b909e909d50909b509950505050505050505050565b606061080f826020015160018460200151510381518110610a7857fe5b60606000825160020267ffffffffffffffff81118015610ed957600080610ed6612a10565b50505b50604051818152601f19601f8301168101602001604052908015610f04576020820181803683370190505b50905060005b8351811015610faa576004848281518110610f2157fe5b60200101516001600160f81b031916901c826002830281518110610f4157fe5b60200101906001600160f81b031916908160001a9053506010848281518110610f6657fe5b602001015160f81c81610f7557fe5b0660f81b828260020260010181518110610f8b57fe5b60200101906001600160f81b031916908160001a905350600101610f0a565b5092915050565b610fb9612a7b565b60006002604051908082528060200260200182016040528015610ff057816020015b6060815260200190600190039081610fdb5790505b509050600061100085600161177d565b905061101361100e826118e1565b6119b9565b8260008151811061102057fe5b6020026020010181905250611034846119b9565b8260018151811061104157fe5b602002602001018190525061105582611a22565b95945050505050565b60608260008760001988018151811061107357fe5b60200260200101519050600061108882611a5a565b9050600060036040519080825280602002602001820160405280156110c757816020015b6110b4612a7b565b8152602001906001900390816110ac5790505b50905060008060028460028111156110db57fe5b14156111a6576000808d5111156111615760005b60018e510381101561115f5760006111198f838151811061110c57fe5b6020026020010151611a5a565b600281111561112457fe5b141561113557600190910190611157565b6111518e828151811061114457fe5b6020026020010151611b3b565b51820191505b6001016110ef565b505b61116a86611b3b565b5161118e61117788611b3b565b6111896111838f610eb1565b856116f0565b61171d565b14801561119a57508651155b156111a457600191505b505b80156111e0576111be6111b886611b3b565b89610fb1565b8383815181106111ca57fe5b602002602001018190525060018201915061141d565b60008460028111156111ee57fe5b1415611257578551611226576112048589611b4e565b83838151811061121057fe5b6020026020010181905250600182019150611252565b8483838151811061123357fe5b60200260200101819052506001820191506111be6111b88760016116f0565b61141d565b600061126286611b3b565b90506000611270828961171d565b905080156112d157600061128683600084611b9c565b905061129a816112958d611d05565b611d46565b8686815181106112a657fe5b60200260200101819052506001850194506112c183836116f0565b92506112cd89836116f0565b9850505b60006112db611d95565b905082516112fc576112f5816112f08a610e94565b611b4e565b9050611391565b60008360008151811061130b57fe5b602001015160f81c90506113208460016116f0565b9350600288600281111561133057fe5b141561136857600061134a856113458c610e94565b610fb1565b9050611360838361135b8451611d05565b611e2a565b92505061138f565b83511561137e57600061134a856112958c610e94565b61138c828261135b8c610e94565b91505b505b88516113c6576113a1818c611b4e565b9050808686815181106113b057fe5b6020026020010181905250600185019450611419565b6113d18960016116f0565b9850808686815181106113e057fe5b60200260200101819052506001850194506113fb898c610fb1565b86868151811061140757fe5b60200260200101819052506001850194505b5050505b61142c8c60018d038585611e83565b9c9b505050505050505050505050565b60008061144883610eb1565b9050611452612a7b565b600060606000875190505b80156115805787600182038151811061147257fe5b6020026020010151935061148584611a5a565b9250600283600281111561149557fe5b14156114c05760006114a685611b3b565b90506114b88660008351895103611b9c565b95505061156b565b60018360028111156114ce57fe5b14156115105760006114df85611b3b565b90506114f18660008351895103611b9c565b955060008351111561150a576115078584611f6f565b94505b5061156b565b600083600281111561151e57fe5b141561156b5760008251111561156b5760008560018751038151811061154057fe5b602001015160f81c905061155a8660006001825103611b9c565b9550611567858285611e2a565b9450505b6115758451611d05565b91506000190161145d565b50825180519060200120979650505050505050565b600081805190602001208380519060200120149392505050565b606061080f6115bd83612026565b61204e565b606060008060006115d2856121da565b9194509250905060008160018111156115e757fe5b146116415760405162461bcd60e51b815260206004820152601860248201527f496e76616c696420524c502062797465732076616c75652e000000000000000060448201526064016040518091039061163e612a10565b50505b61105585602001518484612535565b600060208251101561166c57600060208301519150610ac89050565b602082018251602081101561168957600080611686612a10565b50505b81019080805195945050505050565b600060606020835110156116b6576116af836125e7565b90506116c2565b6116bf836115c2565b90505b6116cb81611650565b9392505050565b606061080f6116eb8360200151600081518110610a7857fe5b610eb1565b60608251821061170f576040516020810160405260008152905061080f565b61080c838384865103611b9c565b6000805b8084511180156117315750808351115b8015611770575082818151811061174457fe5b60200101516001600160f81b03191684828151811061175f57fe5b60200101516001600160f81b031916145b1561080c57600101611721565b606060008261178d576000611790565b60025b90506000600285518161179f57fe5b06905060008160020360ff1667ffffffffffffffff811180156117ca576000806117c7612a10565b50505b50604051818152601f19601f83011681016020016040529080156117f5576020820181803683370190505b50905081830160f81b8160008151811061180b57fe5b60200101906001600160f81b031916908160001a90535080866040516020018083805190602001908083835b602083106118565780518252601f199092019160209182019101611837565b6001836020036101000a038019825116818451161790925250505091909101905082805190602001908083835b602083106118a25780518252601f199092019160209182019101611883565b6001836020036101000a038019825116818451161790925250505091909101935060409250505051602081830303815290604052935050505092915050565b6060600060028351816118f057fe5b0467ffffffffffffffff811180156119105760008061190d612a10565b50505b50604051818152601f19601f830116810160200160405290801561193b576020820181803683370190505b50905060005b8151811015610faa5783816002026001018151811061195c57fe5b60200101516001600160f81b031916600485600284028151811061197c57fe5b60200101516001600160f81b031916901b1782828151811061199a57fe5b60200101906001600160f81b031916908160001a905350600101611941565b606080825160011480156119e157506080836000815181106119d757fe5b602001015160f81c105b156119ed57508161080f565b6119f9835160806125f2565b83604051602001611a0b929190612ae3565b604051602081830303815290604052905092915050565b611a2a612a7b565b6000611a358361275c565b90506040518060400160405280828152602001611a51836115af565b90529392505050565b600060116020830151511415611a7257506000610ac8565b60028260200151511415611aee576000611a8b836116d2565b9050600081600081518110611a9c57fe5b602001015160f81c90506002811480611ab8575060ff81166003145b15611ac857600292505050610ac8565b60ff81161580611adb575060ff81166001145b15611aeb57600192505050610ac8565b50505b60405162461bcd60e51b8152602060048201526011602482015270496e76616c6964206e6f6465207479706560781b604482015260640160405180910390611b34612a10565b5050919050565b606061080f611b49836116d2565b6127a0565b611b56612a7b565b6000611b61836119b9565b9050611b6c81612026565b846020015160018660200151510381518110611b8457fe5b602002602001018190525061082684602001516127e9565b60608182601f011015611bef5760405162461bcd60e51b815260206004820152600e60248201526d736c6963655f6f766572666c6f7760901b604482015260640160405180910390611bec612a10565b50505b828284011015611c3f5760405162461bcd60e51b815260206004820152600e60248201526d736c6963655f6f766572666c6f7760901b604482015260640160405180910390611c3c612a10565b50505b81830184511015611c935760405162461bcd60e51b8152602060048201526011602482015270736c6963655f6f75744f66426f756e647360781b604482015260640160405180910390611c90612a10565b50505b606082158015611cb25760405191506000825260208201604052611cfc565b6040519150601f8416801560200281840101858101878315602002848b0101015b81831015611ceb578051835260209283019201611cd3565b5050858452601f01601f1916604052505b50949350505050565b6060602082511015611d18575080610ac8565b8180519060200120604051602001808281526020019150506040516020818303038152906040529050610ac8565b611d4e612a7b565b60006002604051908082528060200260200182016040528015611d8557816020015b6060815260200190600190039081611d705790505b509050600061100085600061177d565b611d9d612a7b565b60006011604051908082528060200260200182016040528015611dd457816020015b6060815260200190600190039081611dbf5790505b50905060005b8151811015611e1a576040516040808201905260018152600160ff1b6020820152828281518110611e0757fe5b6020908102919091010152600101611dda565b50611e2481611a22565b91505090565b611e32612a7b565b60006020835110611e4b57611e46836119b9565b611e4d565b825b9050611e5881612026565b85602001518560ff1681518110611e6b57fe5b602002602001018190525061105585602001516127e9565b6060600082850167ffffffffffffffff81118015611ea957600080611ea6612a10565b50505b50604051908082528060200260200182016040528015611ee357816020015b611ed0612a7b565b815260200190600190039081611ec85790505b50905060005b85811015611f2457868181518110611efd57fe5b6020026020010151828281518110611f1157fe5b6020908102919091010152600101611ee9565b5060005b83811015611f6557848181518110611f3c57fe5b60200260200101518287830181518110611f5257fe5b6020908102919091010152600101611f28565b5095945050505050565b611f77612a7b565b60006002604051908082528060200260200182016040528015611fae57816020015b6060815260200190600190039081611f995790505b5090506000611fc6611fbf86611b3b565b600061177d565b9050611fd461100e826118e1565b82600081518110611fe157fe5b602002602001018190525060208451101561201457838260018151811061200457fe5b602002602001018190525061201d565b611034846119b9565b61105582611a22565b61202e612a92565b602082016040518060400160405280845181526020019190915292915050565b606060008061205c846121da565b9193509091506001905081600181111561207257fe5b146120cc5760405162461bcd60e51b815260206004820152601760248201527f496e76616c696420524c50206c6973742076616c75652e0000000000000000006044820152606401604051809103906120c9612a10565b50505b6000602060405190808252806020026020018201604052801561210957816020015b6120f6612a92565b8152602001906001900390816120ee5790505b5090506000835b86518110156121cf57602082106121615760405162461bcd60e51b815260040180806020018281038252602a815260200180612af9602a91396040019150506040518091039061215e612a10565b50505b6000806121896040516040808201905280858c51038152602001858c602001510190526121da565b509150915060405180604001604052808383018152602001848b602001510190528585815181106121b657fe5b6020908102919091010152600193909301920101612110565b508152949350505050565b600080808084511161223b5760405162461bcd60e51b815260206004820152601860248201527f524c50206974656d2063616e6e6f74206265206e756c6c2e0000000000000000604482015260640160405180910390612238612a10565b50505b6000846020015190506000815160001a9050607f811161226857600060016000945094509450505061252e565b60b781116122e457607f198101808751116122d25760405162461bcd60e51b815260206004820152601960248201527f496e76616c696420524c502073686f727420737472696e672e000000000000006044820152606401604051809103906122cf612a10565b50505b6001955093506000925061252e915050565b60bf81116123d45760b61981018087511161234e5760405162461bcd60e51b815260206004820152601f60248201527f496e76616c696420524c50206c6f6e6720737472696e67206c656e6774682e0060448201526064016040518091039061234b612a10565b50505b6000816020036101000a60018501510490508181018851116123bf5760405162461bcd60e51b815260206004820152601860248201527f496e76616c696420524c50206c6f6e6720737472696e672e00000000000000006044820152606401604051809103906123bc612a10565b50505b6001909101955093506000925061252e915050565b60f7811161244f5760bf1981018087511161243e5760405162461bcd60e51b815260206004820152601760248201527f496e76616c696420524c502073686f7274206c6973742e00000000000000000060448201526064016040518091039061243b612a10565b50505b60019550935084925061252e915050565b60f6198101808751116124b15760405162461bcd60e51b815260206004820152601d60248201527f496e76616c696420524c50206c6f6e67206c697374206c656e6774682e0000006044820152606401604051809103906124ae612a10565b50505b6000816020036101000a600185015104905081810188511161251b5760405162461bcd60e51b815260206004820152601660248201527524b73b30b634b210292628103637b733903634b9ba1760511b604482015260640160405180910390612518612a10565b50505b600191820196509450925061252e915050565b9193909250565b606060008267ffffffffffffffff8111801561255957600080612556612a10565b50505b50604051818152601f19601f8301168101602001604052908015612584576020820181803683370190505b50905080516125945790506116cb565b8484016020820160005b602086048110156125bf57825182526020928301929091019060010161259e565b50600019601f86166020036101000a0180825116811984511617909152509095945050505050565b606061080f8261289c565b606080603884101561265c576001604051818152601f19601f830116810160200160405290801561262a576020820181803683370190505b50905082840160f81b8160008151811061264057fe5b60200101906001600160f81b031916908160001a90535061080c565b600060015b80868161266a57fe5b041561267f5760019091019061010002612661565b8160010167ffffffffffffffff811180156126a25760008061269f612a10565b50505b50604051818152601f19601f83011681016020016040529080156126cd576020820181803683370190505b50925084820160370160f81b836000815181106126e657fe5b60200101906001600160f81b031916908160001a905350600190505b818111612752576101008183036101000a878161271b57fe5b048161272357fe5b0660f81b83828151811061273357fe5b60200101906001600160f81b031916908160001a905350600101612702565b5050905092915050565b60606000612769836128af565b9050612777815160c06125f2565b81604051602001612789929190612ae3565b604051602081830303815290604052915050919050565b60606002826000815181106127b157fe5b602001015160f81c816127c057fe5b0660ff16600014156127de576127d78260026116f0565b9050610ac8565b6127d78260016116f0565b6127f1612a7b565b6000825167ffffffffffffffff8111801561281457600080612811612a10565b50505b5060405190808252806020026020018201604052801561284857816020015b60608152602001906001900390816128335790505b50905060005b83518110156128925761287384828151811061286657fe5b60200260200101516125e7565b82828151811061287f57fe5b602090810291909101015260010161284e565b506116cb81611a22565b606061080f826020015160008451612535565b606081516128eb576000604051818152601f19601f83011681016020016040529080156128e3576020820181803683370190505b509050610ac8565b6000805b83518110156129195783818151811061290457fe5b602002602001015151909101906001016128ef565b60008267ffffffffffffffff8111801561293b57600080612938612a10565b50505b50604051818152601f19601f8301168101602001604052908015612966576020820181803683370190505b50600092509050602081015b8551831015611cfc57600086848151811061298957fe5b60200260200101519050602081016129a3838284516129ca565b8785815181106129af57fe5b60200260200101515160019095019490920191506129729050565b8282825b602081106129ee57815183526020928301929190910190601f19016129ce565b60001960208290036101000a0180198351168185511617909352505050505050565b632a2a7adb598160e01b8152600481016020815285602082015260005b86811015612a48578086015182820160400152602001612a2d565b506020828760640184336000905af158600e01573d6000803e3d6000fd5b3d6001141558600a015760016000f35b505050565b604051604080820190526060808252602082015290565b604051604080820190526000808252602082015290565b60008151815b81811015612aca576020818501015185820152602001612aaf565b81811115612ad85782828601525b509290920192915050565b6000610826612af28386612aa9565b84612aa956fe50726f766964656420524c50206c6973742065786365656473206d6178206c697374206c656e6774682e52656365697665642061206e6f6465207769746820616e20756e6b6e6f776e20707265666978",
  "linkReferences": {},
  "deployedLinkReferences": {}
}