{
  "_format": "hh-sol-artifact-1",
  "contractName": "TestLib_OVMCodec",
  "sourceName": "contracts/test-libraries/codec/TestLib_OVMCodec.sol",
  "abi": [
    {
      "inputs": [
        {
          "components": [
            {
              "internalType": "uint256",
              "name": "timestamp",
              "type": "uint256"
            },
            {
              "internalType": "uint256",
              "name": "blockNumber",
              "type": "uint256"
            },
            {
              "internalType": "enum Lib_OVMCodec.QueueOrigin",
              "name": "l1QueueOrigin",
              "type": "uint8"
            },
            {
              "internalType": "address",
              "name": "l1TxOrigin",
              "type": "address"
            },
            {
              "internalType": "address",
              "name": "entrypoint",
              "type": "address"
            },
            {
              "internalType": "uint256",
              "name": "gasLimit",
              "type": "uint256"
            },
            {
              "internalType": "bytes",
              "name": "data",
              "type": "bytes"
            }
          ],
          "internalType": "struct Lib_OVMCodec.Transaction",
          "name": "_transaction",
          "type": "tuple"
        }
      ],
      "name": "encodeTransaction",
      "outputs": [
        {
          "internalType": "bytes",
          "name": "_encoded",
          "type": "bytes"
        }
      ],
      "stateMutability": "pure",
      "type": "function"
    },
    {
      "inputs": [
        {
          "components": [
            {
              "internalType": "uint256",
              "name": "timestamp",
              "type": "uint256"
            },
            {
              "internalType": "uint256",
              "name": "blockNumber",
              "type": "uint256"
            },
            {
              "internalType": "enum Lib_OVMCodec.QueueOrigin",
              "name": "l1QueueOrigin",
              "type": "uint8"
            },
            {
              "internalType": "address",
              "name": "l1TxOrigin",
              "type": "address"
            },
            {
              "internalType": "address",
              "name": "entrypoint",
              "type": "address"
            },
            {
              "internalType": "uint256",
              "name": "gasLimit",
              "type": "uint256"
            },
            {
              "internalType": "bytes",
              "name": "data",
              "type": "bytes"
            }
          ],
          "internalType": "struct Lib_OVMCodec.Transaction",
          "name": "_transaction",
          "type": "tuple"
        }
      ],
      "name": "hashTransaction",
      "outputs": [
        {
          "internalType": "bytes32",
          "name": "_hash",
          "type": "bytes32"
        }
      ],
      "stateMutability": "pure",
      "type": "function"
    }
  ],
  "bytecode": "0x60806040523480156100195760008061001661001f565b50505b5061008a565b632a2a7adb598160e01b8152600481016020815285602082015260005b8681101561005757808601518282016040015260200161003c565b506020828760640184336000905af158600e01573d6000803e3d6000fd5b3d6001141558600a015760016000f35b505050565b610418806100996000396000f3fe60806040523480156100195760008061001661011a565b50505b506004361061003f5760003560e01c80633170de2a1461004d578063a3e6d2fc14610076575b60008061004a61011a565b50505b61006061005b366004610235565b610096565b60405161006d9190610384565b60405180910390f35b610089610084366004610235565b6100a9565b60405161006d919061038d565b60006100a1826100b4565b90505b919050565b60606100a1826100cc565b60006100bf826100cc565b8051906020012092915050565b6060815182602001518360400151846060015185608001518660a001518760c001516040516020016101049796959493929190610315565b6040516020818303038152906040529050919050565b632a2a7adb598160e01b8152600481016020815285602082015260005b86811015610152578086015182820160400152602001610137565b506020828760640184336000905af158600e01573d6000803e3d6000fd5b3d6001141558600a015760016000f35b505050565b80356001600160a01b03811681146100a4576000806101a261011a565b5050919050565b600082601f8301126101c25780816101bf61011a565b50505b813567ffffffffffffffff8111156101d657fe5b6101e9601f8201601f19166020016103c0565b81815284602083860101111561020657828361020361011a565b50505b816020850160208301379081016020019190915292915050565b8035600281106100a4576000806101a261011a565b60006020828403121561024f57808161024c61011a565b50505b813567ffffffffffffffff8082111561026f57828361026c61011a565b50505b9083019060e0828603121561028b57828361028861011a565b50505b61029560e06103c0565b82358152602083013560208201526102af60408401610220565b60408201526102c060608401610185565b60608201526102d160808401610185565b608082015260a083013560a082015260c0830135828111156102fa5784856102f761011a565b50505b610306878286016101a9565b60c08301525095945050505050565b60008882528760208301526002871061032a57fe5b8660f81b60408301526bffffffffffffffffffffffff19808760601b166041840152808660601b1660558401525083606983015282516103718160898501602087016103e8565b9190910160890198975050505050505050565b90815260200190565b60006020825282518060208401526103ac8160408501602087016103e8565b601f01601f19169190910160400192915050565b6000604051905081810181811067ffffffffffffffff821117156103e057fe5b604052919050565b60005b838110156104035780820151838201526020016103eb565b83811115610412576000848401525b5050505056",
  "linkReferences": {},
  "deployedLinkReferences": {}
}