{
  "_format": "hh-sol-artifact-1",
  "contractName": "OVM_CrossDomainEnabled",
  "sourceName": "contracts/optimistic-ethereum/libraries/bridge/OVM_CrossDomainEnabled.sol",
  "abi": [
    {
      "inputs": [
        {
          "internalType": "address",
          "name": "_messenger",
          "type": "address"
        }
      ],
      "stateMutability": "nonpayable",
      "type": "constructor"
    },
    {
      "inputs": [],
      "name": "messenger",
      "outputs": [
        {
          "internalType": "address",
          "name": "",
          "type": "address"
        }
      ],
      "stateMutability": "view",
      "type": "function"
    }
  ],
  "bytecode": "0x608060405234801561001057600080fd5b506040516100f83803806100f88339818101604052602081101561003357600080fd5b5051600080546001600160a01b039092166001600160a01b03199092169190911790556094806100646000396000f3fe6080604052348015600f57600080fd5b506004361060285760003560e01c80633cb747bf14602d575b600080fd5b6033604f565b604080516001600160a01b039092168252519081900360200190f35b6000546001600160a01b03168156fea2646970667358221220f90bf6672dd83a040f29fe3f452a0780e9746d72e7f8ed58f651a0110c1a050d64736f6c63430007060033",
  "linkReferences": {},
  "deployedLinkReferences": {}
}