{
  "_format": "hh-sol-artifact-1",
  "contractName": "TestLib_EIP155Tx",
  "sourceName": "contracts/test-libraries/codec/TestLib_EIP155Tx.sol",
  "abi": [
    {
      "inputs": [
        {
          "internalType": "bytes",
          "name": "_encoded",
          "type": "bytes"
        },
        {
          "internalType": "uint256",
          "name": "_chainId",
          "type": "uint256"
        }
      ],
      "name": "decode",
      "outputs": [
        {
          "components": [
            {
              "internalType": "uint256",
              "name": "nonce",
              "type": "uint256"
            },
            {
              "internalType": "uint256",
              "name": "gasPrice",
              "type": "uint256"
            },
            {
              "internalType": "uint256",
              "name": "gasLimit",
              "type": "uint256"
            },
            {
              "internalType": "address",
              "name": "to",
              "type": "address"
            },
            {
              "internalType": "uint256",
              "name": "value",
              "type": "uint256"
            },
            {
              "internalType": "bytes",
              "name": "data",
              "type": "bytes"
            },
            {
              "internalType": "uint8",
              "name": "v",
              "type": "uint8"
            },
            {
              "internalType": "bytes32",
              "name": "r",
              "type": "bytes32"
            },
            {
              "internalType": "bytes32",
              "name": "s",
              "type": "bytes32"
            },
            {
              "internalType": "uint256",
              "name": "chainId",
              "type": "uint256"
            },
            {
              "internalType": "uint8",
              "name": "recoveryParam",
              "type": "uint8"
            },
            {
              "internalType": "bool",
              "name": "isCreate",
              "type": "bool"
            }
          ],
          "internalType": "struct Lib_EIP155Tx.EIP155Tx",
          "name": "",
          "type": "tuple"
        }
      ],
      "stateMutability": "pure",
      "type": "function"
    },
    {
      "inputs": [
        {
          "components": [
            {
              "internalType": "uint256",
              "name": "nonce",
              "type": "uint256"
            },
            {
              "internalType": "uint256",
              "name": "gasPrice",
              "type": "uint256"
            },
            {
              "internalType": "uint256",
              "name": "gasLimit",
              "type": "uint256"
            },
            {
              "internalType": "address",
              "name": "to",
              "type": "address"
            },
            {
              "internalType": "uint256",
              "name": "value",
              "type": "uint256"
            },
            {
              "internalType": "bytes",
              "name": "data",
              "type": "bytes"
            },
            {
              "internalType": "uint8",
              "name": "v",
              "type": "uint8"
            },
            {
              "internalType": "bytes32",
              "name": "r",
              "type": "bytes32"
            },
            {
              "internalType": "bytes32",
              "name": "s",
              "type": "bytes32"
            },
            {
              "internalType": "uint256",
              "name": "chainId",
              "type": "uint256"
            },
            {
              "internalType": "uint8",
              "name": "recoveryParam",
              "type": "uint8"
            },
            {
              "internalType": "bool",
              "name": "isCreate",
              "type": "bool"
            }
          ],
          "internalType": "struct Lib_EIP155Tx.EIP155Tx",
          "name": "_transaction",
          "type": "tuple"
        },
        {
          "internalType": "bool",
          "name": "_includeSignature",
          "type": "bool"
        }
      ],
      "name": "encode",
      "outputs": [
        {
          "internalType": "bytes",
          "name": "",
          "type": "bytes"
        }
      ],
      "stateMutability": "pure",
      "type": "function"
    },
    {
      "inputs": [
        {
          "components": [
            {
              "internalType": "uint256",
              "name": "nonce",
              "type": "uint256"
            },
            {
              "internalType": "uint256",
              "name": "gasPrice",
              "type": "uint256"
            },
            {
              "internalType": "uint256",
              "name": "gasLimit",
              "type": "uint256"
            },
            {
              "internalType": "address",
              "name": "to",
              "type": "address"
            },
            {
              "internalType": "uint256",
              "name": "value",
              "type": "uint256"
            },
            {
              "internalType": "bytes",
              "name": "data",
              "type": "bytes"
            },
            {
              "internalType": "uint8",
              "name": "v",
              "type": "uint8"
            },
            {
              "internalType": "bytes32",
              "name": "r",
              "type": "bytes32"
            },
            {
              "internalType": "bytes32",
              "name": "s",
              "type": "bytes32"
            },
            {
              "internalType": "uint256",
              "name": "chainId",
              "type": "uint256"
            },
            {
              "internalType": "uint8",
              "name": "recoveryParam",
              "type": "uint8"
            },
            {
              "internalType": "bool",
              "name": "isCreate",
              "type": "bool"
            }
          ],
          "internalType": "struct Lib_EIP155Tx.EIP155Tx",
          "name": "_transaction",
          "type": "tuple"
        }
      ],
      "name": "hash",
      "outputs": [
        {
          "internalType": "bytes32",
          "name": "",
          "type": "bytes32"
        }
      ],
      "stateMutability": "pure",
      "type": "function"
    },
    {
      "inputs": [
        {
          "components": [
            {
              "internalType": "uint256",
              "name": "nonce",
              "type": "uint256"
            },
            {
              "internalType": "uint256",
              "name": "gasPrice",
              "type": "uint256"
            },
            {
              "internalType": "uint256",
              "name": "gasLimit",
              "type": "uint256"
            },
            {
              "internalType": "address",
              "name": "to",
              "type": "address"
            },
            {
              "internalType": "uint256",
              "name": "value",
              "type": "uint256"
            },
            {
              "internalType": "bytes",
              "name": "data",
              "type": "bytes"
            },
            {
              "internalType": "uint8",
              "name": "v",
              "type": "uint8"
            },
            {
              "internalType": "bytes32",
              "name": "r",
              "type": "bytes32"
            },
            {
              "internalType": "bytes32",
              "name": "s",
              "type": "bytes32"
            },
            {
              "internalType": "uint256",
              "name": "chainId",
              "type": "uint256"
            },
            {
              "internalType": "uint8",
              "name": "recoveryParam",
              "type": "uint8"
            },
            {
              "internalType": "bool",
              "name": "isCreate",
              "type": "bool"
            }
          ],
          "internalType": "struct Lib_EIP155Tx.EIP155Tx",
          "name": "_transaction",
          "type": "tuple"
        }
      ],
      "name": "sender",
      "outputs": [
        {
          "internalType": "address",
          "name": "",
          "type": "address"
        }
      ],
      "stateMutability": "pure",
      "type": "function"
    }
  ],
  "bytecode": "0x60806040523480156100195760008061001661001f565b50505b5061008a565b632a2a7adb598160e01b8152600481016020815285602082015260005b8681101561005757808601518282016040015260200161003c565b506020828760640184336000905af158600e01573d6000803e3d6000fd5b3d6001141558600a015760016000f35b505050565b6119a0806100996000396000f3fe6080604052348015610019576000806100166112ae565b50505b50600436106100555760003560e01c80630df31f9314610063578063280227de1461008c5780632925fd09146100ac578063e677d67d146100cc575b6000806100606112ae565b50505b610076610071366004611685565b6100ec565b60405161008391906117c1565b60405180910390f35b61009f61009a366004611685565b6100ff565b604051610083919061178b565b6100bf6100ba3660046116ca565b61010a565b60405161008391906117f3565b6100df6100da366004611630565b61011f565b604051610083919061185a565b60006100f782610131565b90505b919050565b60006100f7826101b6565b606061011683836101cf565b90505b92915050565b610127611319565b6101168383610437565b6000600161013e836101b6565b836101400151601b018460e001518561010001516040516000815260200160405260405161016f94939291906117d5565b6020604051602081039080840390855a61018761137b565b50505050501580156101a6573d6000803e3d60006101a36112ae565b50505b5050506020604051035192915050565b60006101c282826101cf565b8051906020012092915050565b60606000600960405190808252806020026020018201604052801561020857816020015b60608152602001906001900390816101f35790505b50905061021584516105d6565b8160008151811061022257fe5b602002602001018190525061023a84602001516105d6565b8160018151811061024757fe5b602002602001018190525061025f84604001516105d6565b8160028151811061026c57fe5b6020026020010181905250836101600151156102b55761029860405160208101604052600081526105e4565b816003815181106102a557fe5b60200260200101819052506102db565b6102c2846060015161064d565b816003815181106102cf57fe5b60200260200101819052505b6102e884608001516105d6565b816004815181106102f557fe5b602002602001018190525061030d8460a001516105e4565b8160058151811061031a57fe5b602002602001018190525082156103a35761033b8460c0015160ff166105d6565b8160068151811061034857fe5b60200260200101819052506103608460e00151610677565b8160078151811061036d57fe5b6020026020010181905250610386846101000151610677565b8160088151811061039357fe5b6020026020010181905250610426565b6103b18461012001516105d6565b816006815181106103be57fe5b60200260200101819052506103df60405160208101604052600081526105e4565b816007815181106103ec57fe5b602002602001018190525061040d60405160208101604052600081526105e4565b8160088151811061041a57fe5b60200260200101819052505b61042f8161068d565b949350505050565b61043f611319565b600061044a846106d1565b9050600061046b8260068151811061045e57fe5b60200260200101516106e4565b905060006023856002028360ff160303905060028160ff16106104b25760405162461bcd60e51b81526004016104a090611806565b604051809103906104af6112ae565b50505b60006104d1846003815181106104c457fe5b60200260200101516106ef565b511590506040518061018001604052806104f18660008151811061045e57fe5b81526020016105068660018151811061045e57fe5b815260200161051b8660028151811061045e57fe5b815260200161053d8660038151811061053057fe5b6020026020010151610786565b6001600160a01b0316815260200161055b8660048151811061045e57fe5b8152602001610570866005815181106104c457fe5b81526020018460ff16815260200161059b8660078151811061058e57fe5b6020026020010151610801565b81526020016105b08660088151811061058e57fe5b81526020018781526020018360ff16815260200182151581525094505050505092915050565b60606100f76105e48361090f565b6060808251600114801561060c575060808360008151811061060257fe5b602001015160f81c105b156106185750816100f7565b61062483516080610a21565b83604051602001610636929190611794565b604051602081830303815290604052905092915050565b60606100f782604051602001610663919061176e565b6040516020818303038152906040526105e4565b60606100f782604051602001610663919061178b565b6060600061069a83610b8a565b90506106a8815160c0610a21565b816040516020016106ba929190611794565b604051602081830303815290604052915050919050565b60606100f76106df83610ca5565b610ccd565b60006100f782610801565b606060008060006106ff85610e59565b91945092509050600081600181111561071457fe5b1461076e5760405162461bcd60e51b815260206004820152601860248201527f496e76616c696420524c502062797465732076616c75652e000000000000000060448201526064016040518091039061076b6112ae565b50505b61077d856020015184846111b4565b95945050505050565b600081516001141561079a575060006100fa565b81516015146107f85760405162461bcd60e51b815260206004820152601a60248201527f496e76616c696420524c5020616464726573732076616c75652e0000000000006044820152606401604051809103906107f56112ae565b50505b6100f7826106e4565b60006021825111156108625760405162461bcd60e51b815260206004820152601a60248201527f496e76616c696420524c5020627974657333322076616c75652e00000000000060448201526064016040518091039061085f6112ae565b50505b600080600061087085610e59565b91945092509050600081600181111561088557fe5b146108df5760405162461bcd60e51b815260206004820152601a60248201527f496e76616c696420524c5020627974657333322076616c75652e0000000000006044820152606401604051809103906108dc6112ae565b50505b600083866020015101905060008151905060208410156109055760208490036101000a90045b9695505050505050565b6060600082604051602001610924919061178b565b604051602081830303815290604052905060005b602081101561096e5781818151811061094d57fe5b60200101516001600160f81b031916156109665761096e565b600101610938565b60008160200367ffffffffffffffff81118015610993576000806109906112ae565b50505b50604051818152601f19601f83011681016020016040529080156109be576020820181803683370190505b50905060005b8151811015610a185760018301928490815181106109de57fe5b60200101516001600160f81b0319168282815181106109f957fe5b60200101906001600160f81b031916908160001a9053506001016109c4565b50949350505050565b6060806038841015610a8b576001604051818152601f19601f8301168101602001604052908015610a59576020820181803683370190505b50905082840160f81b81600081518110610a6f57fe5b60200101906001600160f81b031916908160001a905350610116565b600060015b808681610a9957fe5b0415610aae5760019091019061010002610a90565b8160010167ffffffffffffffff81118015610ad157600080610ace6112ae565b50505b50604051818152601f19601f8301168101602001604052908015610afc576020820181803683370190505b50925084820160370160f81b83600081518110610b1557fe5b60200101906001600160f81b031916908160001a905350600190505b818111610b81576101008183036101000a8781610b4a57fe5b0481610b5257fe5b0660f81b838281518110610b6257fe5b60200101906001600160f81b031916908160001a905350600101610b31565b50509392505050565b60608151610bc6576000604051818152601f19601f8301168101602001604052908015610bbe576020820181803683370190505b5090506100fa565b6000805b8351811015610bf457838181518110610bdf57fe5b60200260200101515190910190600101610bca565b60008267ffffffffffffffff81118015610c1657600080610c136112ae565b50505b50604051818152601f19601f8301168101602001604052908015610c41576020820181803683370190505b50600092509050602081015b8551831015610a18576000868481518110610c6457fe5b6020026020010151905060208101610c7e83828451611268565b878581518110610c8a57fe5b6020026020010151516001909501949092019150610c4d9050565b610cad611466565b602082016040518060400160405280845181526020019190915292915050565b6060600080610cdb84610e59565b91935090915060019050816001811115610cf157fe5b14610d4b5760405162461bcd60e51b815260206004820152601760248201527f496e76616c696420524c50206c6973742076616c75652e000000000000000000604482015260640160405180910390610d486112ae565b50505b60006020604051908082528060200260200182016040528015610d8857816020015b610d75611466565b815260200190600190039081610d6d5790505b5090506000835b8651811015610e4e5760208210610de05760405162461bcd60e51b815260040180806020018281038252602a815260200180611976602a913960400191505060405180910390610ddd6112ae565b50505b600080610e086040516040808201905280858c51038152602001858c60200151019052610e59565b509150915060405180604001604052808383018152602001848b60200151019052858581518110610e3557fe5b6020908102919091010152600193909301920101610d8f565b508152949350505050565b6000808080845111610eba5760405162461bcd60e51b815260206004820152601860248201527f524c50206974656d2063616e6e6f74206265206e756c6c2e0000000000000000604482015260640160405180910390610eb76112ae565b50505b6000846020015190506000815160001a9050607f8111610ee75760006001600094509450945050506111ad565b60b78111610f6357607f19810180875111610f515760405162461bcd60e51b815260206004820152601960248201527f496e76616c696420524c502073686f727420737472696e672e00000000000000604482015260640160405180910390610f4e6112ae565b50505b600195509350600092506111ad915050565b60bf81116110535760b619810180875111610fcd5760405162461bcd60e51b815260206004820152601f60248201527f496e76616c696420524c50206c6f6e6720737472696e67206c656e6774682e00604482015260640160405180910390610fca6112ae565b50505b6000816020036101000a600185015104905081810188511161103e5760405162461bcd60e51b815260206004820152601860248201527f496e76616c696420524c50206c6f6e6720737472696e672e000000000000000060448201526064016040518091039061103b6112ae565b50505b600190910195509350600092506111ad915050565b60f781116110ce5760bf198101808751116110bd5760405162461bcd60e51b815260206004820152601760248201527f496e76616c696420524c502073686f7274206c6973742e0000000000000000006044820152606401604051809103906110ba6112ae565b50505b6001955093508492506111ad915050565b60f6198101808751116111305760405162461bcd60e51b815260206004820152601d60248201527f496e76616c696420524c50206c6f6e67206c697374206c656e6774682e00000060448201526064016040518091039061112d6112ae565b50505b6000816020036101000a600185015104905081810188511161119a5760405162461bcd60e51b815260206004820152601660248201527524b73b30b634b210292628103637b733903634b9ba1760511b6044820152606401604051809103906111976112ae565b50505b60019182019650945092506111ad915050565b9193909250565b606060008267ffffffffffffffff811180156111d8576000806111d56112ae565b50505b50604051818152601f19601f8301168101602001604052908015611203576020820181803683370190505b5090508051611213579050611261565b8484016020820160005b6020860481101561123e57825182526020928301929091019060010161121d565b50600019601f86166020036101000a018082511681198451161790915250909150505b9392505050565b8282825b6020811061128c57815183526020928301929190910190601f190161126c565b60001960208290036101000a0180198351168185511617909352505050505050565b632a2a7adb598160e01b8152600481016020815285602082015260005b868110156112e65780860151828201604001526020016112cb565b506020828760640184336000905af158600e01573d6000803e3d6000fd5b3d6001141558600a015760016000f35b505050565b6040516101808101604090815260008083526020830181905290820181905260608083018290526080830182905260a083015260c0820181905260e0820181905261010082018190526101208201819052610140820181905261016082015290565b638540661f598160e01b81526113ac565b8080831115610119575090919050565b8080831015610119575090919050565b836004820152846024820152606060448201528660648201526084810160005b888110156113e45780880151828201526020016113cc565b506060828960a40184336000905af158600e01573d6000803e3d6000fd5b3d6001141558600a015760016000f35b815160408301513d6000853e8b8b82606087013350600060045af150596114398d3d61139c565b8c01611445818761138c565b5b8281101561145a5760008152602001611446565b50929c50505050505050565b604051604080820190526000808252602082015290565b80356001600160a01b03811681146100fa5760008061149a6112ae565b5050919050565b803580151581146100fa5760008061149a6112ae565b600082601f8301126114d05780816114cd6112ae565b50505b813567ffffffffffffffff8111156114e457fe5b6114f7601f8201601f191660200161191d565b8181528460208386010111156115145782836115116112ae565b50505b816020850160208301379081016020019190915292915050565b600061018080838503121561154a5781826115476112ae565b50505b6115538161191d565b91505081358152602082013560208201526040820135604082015261157a6060830161147d565b60608201526080820135608082015260a082013567ffffffffffffffff8111156115ac576000806115a96112ae565b50505b6115b8848285016114b7565b60a0830152506115ca60c08301611619565b60c082015260e08281013590820152610100808301359082015261012080830135908201526101406115fd818401611619565b9082015261016061160f8382016114a1565b9082015292915050565b803560ff811681146100fa5760008061149a6112ae565b6000806040838503121561164b5781826116486112ae565b50505b823567ffffffffffffffff81111561166a5782836116676112ae565b50505b611676858286016114b7565b95602094909401359450505050565b60006020828403121561169f57808161169c6112ae565b50505b813567ffffffffffffffff8111156116be5781826116bb6112ae565b50505b61042f8482850161152e565b600080604083850312156116e55781826116e26112ae565b50505b823567ffffffffffffffff8111156117045782836117016112ae565b50505b6117108582860161152e565b92505061171f602084016114a1565b90509250929050565b6001600160a01b03169052565b15159052565b60008151808452611753816020860160208601611945565b601f01601f19169290920160200192915050565b60ff169052565b60609190911b6bffffffffffffffffffffffff1916815260140190565b90815260200190565b600083516117a6818460208801611945565b820183516117b8818360208801611945565b01949350505050565b6001600160a01b0391909116815260200190565b93845260ff9290921660208401526040830152606082015260800190565b600060208252610116602083018461173b565b60208082526034908201527f4c69625f45495031353554783a205472616e73616374696f6e207369676e6564604082015273081dda5d1a081ddc9bdb99c818da185a5b88125160621b606082015260800190565b600060208252825160208301526020830151604083015260408301516060830152606083015161188d6080840182611728565b50608083015160a083015260a08301516101808060c08501526118b46101a085018361173b565b915060c08501516118c860e0860182611767565b5060e085015161010081818701528087015191505061012081818701528087015191505061014081818701528087015191505061016061190a81870183611767565b80870151915050610b8182860182611735565b6000604051905081810181811067ffffffffffffffff8211171561193d57fe5b604052919050565b60005b83811015611960578082015183820152602001611948565b8381111561196f576000848401525b5050505056fe50726f766964656420524c50206c6973742065786365656473206d6178206c697374206c656e6774682e",
  "linkReferences": {},
  "deployedLinkReferences": {}
}