{
  "_format": "hh-sol-artifact-1",
  "contractName": "OVM_ECDSAContractAccount",
  "sourceName": "contracts/optimistic-ethereum/OVM/accounts/OVM_ECDSAContractAccount.sol",
  "abi": [
    {
      "inputs": [
        {
          "internalType": "bytes",
          "name": "_encodedTransaction",
          "type": "bytes"
        }
      ],
      "name": "execute",
      "outputs": [
        {
          "internalType": "bool",
          "name": "",
          "type": "bool"
        },
        {
          "internalType": "bytes",
          "name": "",
          "type": "bytes"
        }
      ],
      "stateMutability": "nonpayable",
      "type": "function"
    }
  ],
  "bytecode": "0x60806040523480156100195760008061001661001f565b50505b5061008a565b632a2a7adb598160e01b8152600481016020815285602082015260005b8681101561005757808601518282016040015260200161003c565b506020828760640184336000905af158600e01573d6000803e3d6000fd5b3d6001141558600a015760016000f35b505050565b612135806200009a6000396000f3fe60806040523480156100195760008061001661196d565b50505b50600436106100345760003560e01c806309c5eabe14610042575b60008061003f61196d565b50505b610055610050366004611cd7565b61006c565b604051610063929190611e2c565b60405180910390f35b6000606060006100838461007e6104a4565b610511565b90505a63996d79a5598160e01b8152602081600483336000905af158600e01573d6000803e3d6000fd5b3d6001141558600a015760016000f35b8051925060005b60408110156100db576000828201526020016100c4565b5050506001600160a01b03166100f0826106b1565b6001600160a01b0316146101285760405162461bcd60e51b815260040161011690611f2c565b6040518091039061012561196d565b50505b610130610738565b8151146101615760405162461bcd60e51b815260040161014f90612065565b6040518091039061015e61196d565b50505b6006602160991b0163a9059cbb5a6101776119d8565b61018984604001518560200151610777565b6040518363ffffffff1660e01b81526004016101a6929190611e13565b602060405180830381600087806101bb611a32565b1580156101d0576000806101cd61196d565b50505b505a6101da611a7e565b5050505050501580156101fa573d6000803e3d60006101f761196d565b50505b50505050604051601f3d908101601f1916820160405261021d9190810190611ca8565b61024b5760405162461bcd60e51b815260040161023990611f89565b6040518091039061024861196d565b50505b806101600151156102ea5780608001511561028a5760405162461bcd60e51b815260040161027890611e86565b6040518091039061028761196d565b50505b60008061029a8360a001516107e0565b90925090506001600160a01b038216156102dc576001826040516020016102c19190611dff565b6040516020818303038152906040529450945050505061049f565b60009450925061049f915050565b6102f261098a565b600081608001511115610429578060a0015151156103345760405162461bcd60e51b815260040161032290612018565b6040518091039061033161196d565b50505b6006602160991b0163a9059cbb606083015183608001516040518363ffffffff1660e01b8152600401610368929190611e13565b6020604051808303816000878061037d611a32565b1580156103925760008061038f61196d565b50505b505a61039c611a7e565b5050505050501580156103bc573d6000803e3d60006103b961196d565b50505b50505050604051601f3d908101601f191682016040526103df9190810190611ca8565b61040d5760405162461bcd60e51b81526004016103fb90611fcc565b6040518091039061040a61196d565b50505b600160405180602001604052806000815250925092505061049f565b80606001516001600160a01b03168160a001516040516104499190611db6565b6000604051808303816000865a61045e611a7e565b5050505050509150503d8060008114610493576040513d603f01601f191681016040523d815291503d6000602084013e610498565b606091505b5092509250505b915091565b6000806104e3604051602401604051601f1981830301815260409190915263482c012b60e11b6020820180516001600160e01b031690911790526109c9565b90506020810181516020811015610502576000806104ff61196d565b50505b81019080805194505050505090565b610519611b69565b600061052484610a1f565b905060006105458260068151811061053857fe5b6020026020010151610a32565b905060006023856002028360ff160303905060028160ff161061058c5760405162461bcd60e51b815260040161057a90611ed8565b6040518091039061058961196d565b50505b60006105ab8460038151811061059e57fe5b6020026020010151610a3d565b511590506040518061018001604052806105cb8660008151811061053857fe5b81526020016105e08660018151811061053857fe5b81526020016105f58660028151811061053857fe5b81526020016106178660038151811061060a57fe5b6020026020010151610ad4565b6001600160a01b031681526020016106358660048151811061053857fe5b815260200161064a8660058151811061059e57fe5b81526020018460ff1681526020016106758660078151811061066857fe5b6020026020010151610b4f565b815260200161068a8660088151811061066857fe5b81526020018781526020018360ff1681526020018215158152509450505050505b92915050565b600060016106be83610c5d565b836101400151601b018460e00151856101000151604051600081526020016040526040516106ef9493929190611e68565b6020604051602081039080840390855a610707611bcb565b5050505050158015610726573d6000803e3d600061072361196d565b50505b5050506020604051035190505b919050565b6000806104e3604051602401604051601f198183030181526040919091526360fd975160e11b6020820180516001600160e01b031690911790526109c9565b600082610786575060006106ab565b8282028284828161079357fe5b04146107d95760405162461bcd60e51b815260040180806020018281038252602181526020018061211460219139604001915050604051809103906107d661196d565b50505b9392505050565b60006060600061088f846040516024018080602001828103825283818151815260200191508051906020019080838360005b8381101561082a578082015183820152602001610812565b50505050905090810190601f1680156108575780820380516001836020036101000a031916815260200191505b5092505050604051601f198183030181526040919091526314aa2ff760e01b6020820180516001600160e01b031690911790526109c9565b905060208101815160408110156108ae576000806108ab61196d565b50505b810190808051929190602001805160405193929190846401000000008211156108df576000806108dc61196d565b50505b9083019060208201858111156108fd576000806108fa61196d565b50505b82516401000000008111828201881017156109205760008061091d61196d565b50505b825250602001908051906020019080838360005b8381101561094c578082015183820152602001610934565b50505050905090810190601f1680156109795780820380516001836020036101000a031916815260200191505b506040525050509250925050915091565b6109c6604051602401604051601f19818303018152604091909152631f3aefa560e21b6020820180516001600160e01b031690911790526109c9565b50565b606080600080845160208601336000905af158600e01573d6000803e3d6000fd5b3d6001141558600a015760016000f35b3d604051603f8201601f191681016040528181529150806000602084013e5092915050565b60606106ab610a2d83610c76565b610c9e565b60006106ab82610b4f565b60606000806000610a4d85610e2a565b919450925090506000816001811115610a6257fe5b14610abc5760405162461bcd60e51b815260206004820152601860248201527f496e76616c696420524c502062797465732076616c75652e0000000000000000604482015260640160405180910390610ab961196d565b50505b610acb85602001518484611185565b95945050505050565b6000815160011415610ae857506000610733565b8151601514610b465760405162461bcd60e51b815260206004820152601a60248201527f496e76616c696420524c5020616464726573732076616c75652e000000000000604482015260640160405180910390610b4361196d565b50505b6106ab82610a32565b6000602182511115610bb05760405162461bcd60e51b815260206004820152601a60248201527f496e76616c696420524c5020627974657333322076616c75652e000000000000604482015260640160405180910390610bad61196d565b50505b6000806000610bbe85610e2a565b919450925090506000816001811115610bd357fe5b14610c2d5760405162461bcd60e51b815260206004820152601a60248201527f496e76616c696420524c5020627974657333322076616c75652e000000000000604482015260640160405180910390610c2a61196d565b50505b60008386602001510190506000815190506020841015610c535760208490036101000a90045b9695505050505050565b6000610c698282611237565b8051906020012092915050565b610c7e611c91565b602082016040518060400160405280845181526020019190915292915050565b6060600080610cac84610e2a565b91935090915060019050816001811115610cc257fe5b14610d1c5760405162461bcd60e51b815260206004820152601760248201527f496e76616c696420524c50206c6973742076616c75652e000000000000000000604482015260640160405180910390610d1961196d565b50505b60006020604051908082528060200260200182016040528015610d5957816020015b610d46611c91565b815260200190600190039081610d3e5790505b5090506000835b8651811015610e1f5760208210610db15760405162461bcd60e51b815260040180806020018281038252602a8152602001806120ea602a913960400191505060405180910390610dae61196d565b50505b600080610dd96040516040808201905280858c51038152602001858c60200151019052610e2a565b509150915060405180604001604052808383018152602001848b60200151019052858581518110610e0657fe5b6020908102919091010152600193909301920101610d60565b508152949350505050565b6000808080845111610e8b5760405162461bcd60e51b815260206004820152601860248201527f524c50206974656d2063616e6e6f74206265206e756c6c2e0000000000000000604482015260640160405180910390610e8861196d565b50505b6000846020015190506000815160001a9050607f8111610eb857600060016000945094509450505061117e565b60b78111610f3457607f19810180875111610f225760405162461bcd60e51b815260206004820152601960248201527f496e76616c696420524c502073686f727420737472696e672e00000000000000604482015260640160405180910390610f1f61196d565b50505b6001955093506000925061117e915050565b60bf81116110245760b619810180875111610f9e5760405162461bcd60e51b815260206004820152601f60248201527f496e76616c696420524c50206c6f6e6720737472696e67206c656e6774682e00604482015260640160405180910390610f9b61196d565b50505b6000816020036101000a600185015104905081810188511161100f5760405162461bcd60e51b815260206004820152601860248201527f496e76616c696420524c50206c6f6e6720737472696e672e000000000000000060448201526064016040518091039061100c61196d565b50505b6001909101955093506000925061117e915050565b60f7811161109f5760bf1981018087511161108e5760405162461bcd60e51b815260206004820152601760248201527f496e76616c696420524c502073686f7274206c6973742e00000000000000000060448201526064016040518091039061108b61196d565b50505b60019550935084925061117e915050565b60f6198101808751116111015760405162461bcd60e51b815260206004820152601d60248201527f496e76616c696420524c50206c6f6e67206c697374206c656e6774682e0000006044820152606401604051809103906110fe61196d565b50505b6000816020036101000a600185015104905081810188511161116b5760405162461bcd60e51b815260206004820152601660248201527524b73b30b634b210292628103637b733903634b9ba1760511b60448201526064016040518091039061116861196d565b50505b600191820196509450925061117e915050565b9193909250565b606060008267ffffffffffffffff811180156111a9576000806111a661196d565b50505b50604051818152601f19601f83011681016020016040529080156111d4576020820181803683370190505b50905080516111e45790506107d9565b8484016020820160005b6020860481101561120f5782518252602092830192909101906001016111ee565b50600019601f86166020036101000a0180825116811984511617909152509095945050505050565b60606000600960405190808252806020026020018201604052801561127057816020015b606081526020019060019003908161125b5790505b50905061127d845161149f565b8160008151811061128a57fe5b60200260200101819052506112a2846020015161149f565b816001815181106112af57fe5b60200260200101819052506112c7846040015161149f565b816002815181106112d457fe5b60200260200101819052508361016001511561131d5761130060405160208101604052600081526114ad565b8160038151811061130d57fe5b6020026020010181905250611343565b61132a8460600151611516565b8160038151811061133757fe5b60200260200101819052505b611350846080015161149f565b8160048151811061135d57fe5b60200260200101819052506113758460a001516114ad565b8160058151811061138257fe5b6020026020010181905250821561140b576113a38460c0015160ff1661149f565b816006815181106113b057fe5b60200260200101819052506113c88460e00151611540565b816007815181106113d557fe5b60200260200101819052506113ee846101000151611540565b816008815181106113fb57fe5b602002602001018190525061148e565b61141984610120015161149f565b8160068151811061142657fe5b602002602001018190525061144760405160208101604052600081526114ad565b8160078151811061145457fe5b602002602001018190525061147560405160208101604052600081526114ad565b8160088151811061148257fe5b60200260200101819052505b61149781611556565b949350505050565b60606106ab6114ad8361159a565b606080825160011480156114d557506080836000815181106114cb57fe5b602001015160f81c105b156114e15750816106ab565b6114ed835160806116ac565b836040516020016114ff929190611dd2565b604051602081830303815290604052905092915050565b60606106ab8260405160200161152c9190611d90565b6040516020818303038152906040526114ad565b60606106ab8260405160200161152c9190611dad565b606060006115638361180c565b9050611571815160c06116ac565b81604051602001611583929190611dd2565b604051602081830303815290604052915050919050565b60606000826040516020016115af9190611dad565b604051602081830303815290604052905060005b60208110156115f9578181815181106115d857fe5b60200101516001600160f81b031916156115f1576115f9565b6001016115c3565b60008160200367ffffffffffffffff8111801561161e5760008061161b61196d565b50505b50604051818152601f19601f8301168101602001604052908015611649576020820181803683370190505b50905060005b81518110156116a357600183019284908151811061166957fe5b60200101516001600160f81b03191682828151811061168457fe5b60200101906001600160f81b031916908160001a90535060010161164f565b50949350505050565b6060806038841015611716576001604051818152601f19601f83011681016020016040529080156116e4576020820181803683370190505b50905082840160f81b816000815181106116fa57fe5b60200101906001600160f81b031916908160001a9053506107d9565b600060015b80868161172457fe5b0415611739576001909101906101000261171b565b8160010167ffffffffffffffff8111801561175c5760008061175961196d565b50505b50604051818152601f19601f8301168101602001604052908015611787576020820181803683370190505b50925084820160370160f81b836000815181106117a057fe5b60200101906001600160f81b031916908160001a905350600190505b8181116107d6576101008183036101000a87816117d557fe5b04816117dd57fe5b0660f81b8382815181106117ed57fe5b60200101906001600160f81b031916908160001a9053506001016117bc565b60608151611848576000604051818152601f19601f8301168101602001604052908015611840576020820181803683370190505b509050610733565b6000805b83518110156118765783818151811061186157fe5b6020026020010151519091019060010161184c565b60008267ffffffffffffffff811180156118985760008061189561196d565b50505b50604051818152601f19601f83011681016020016040529080156118c3576020820181803683370190505b50600092509050602081015b85518310156116a35760008684815181106118e657fe5b602002602001015190506020810161190083828451611927565b87858151811061190c57fe5b60200260200101515160019095019490920191506118cf9050565b8282825b6020811061194b57815183526020928301929190910190601f190161192b565b60001960208290036101000a0180198351168185511617909352505050505050565b632a2a7adb598160e01b8152600481016020815285602082015260005b868110156119a557808601518282016040015260200161198a565b506020828760640184336000905af158600e01573d6000803e3d6000fd5b3d6001141558600a015760016000f35b505050565b6373509064598160e01b8152602081600483336000905af158600e01573d6000803e3d6000fd5b3d6001141558600a015760016000f35b8051935060005b6040811015611a2d57600082820152602001611a16565b505050565b638435035b598160e01b8152836004820152602081602483336000905af158600e01573d6000803e3d6000fd5b3d6001141558600a015760016000f35b80516000825293506020611a16565b6385979f76598160e01b8152611aaf565b80808311156106ab575090919050565b80808310156106ab575090919050565b836004820152846024820152606060448201528760648201526084810160005b89811015611ae7578089015182820152602001611acf565b506060828a60a40184336000905af158600e01573d6000803e3d6000fd5b3d6001141558600a015760016000f35b815160408301513d6000853e8c8c82606087013350600060045af15059611b3c8e3d611a9f565b8d01611b488187611a8f565b5b82811015611b5d5760008152602001611b49565b50929d50505050505050565b6040516101808101604090815260008083526020830181905290820181905260608083018290526080830182905260a083015260c0820181905260e0820181905261010082018190526101208201819052610140820181905261016082015290565b638540661f598160e01b8152836004820152846024820152606060448201528660648201526084810160005b88811015611c0f578088015182820152602001611bf7565b506060828960a40184336000905af158600e01573d6000803e3d6000fd5b3d6001141558600a015760016000f35b815160408301513d6000853e8b8b82606087013350600060045af15059611c648d3d611a9f565b8c01611c708187611a8f565b5b82811015611c855760008152602001611c71565b50929c50505050505050565b604051604080820190526000808252602082015290565b600060208284031215611cc2578081611cbf61196d565b50505b815180151581146107d95781826107d661196d565b60006020808385031215611cf2578182611cef61196d565b50505b823567ffffffffffffffff80821115611d12578384611d0f61196d565b50505b818501915085601f830112611d2e578384611d2b61196d565b50505b813581811115611d3a57fe5b604051601f8201601f1916810185018381118282101715611d5757fe5b6040528181528382018501881015611d76578586611d7361196d565b50505b818585018683013790810190930193909352509392505050565b60609190911b6bffffffffffffffffffffffff1916815260140190565b90815260200190565b60008251611dc88184602087016120b9565b9190910192915050565b60008351611de48184602088016120b9565b82018351611df68183602088016120b9565b01949350505050565b6001600160a01b0391909116815260200190565b6001600160a01b03929092168252602082015260400190565b60008315158252604060208301528251806040840152611e538160608501602087016120b9565b601f01601f1916919091016060019392505050565b93845260ff9290921660208401526040830152606082015260800190565b60208082526032908201527f56616c7565207472616e7366657220696e20636f6e747261637420637265617460408201527134b7b7103737ba1039bab83837b93a32b21760711b606082015260800190565b60208082526034908201527f4c69625f45495031353554783a205472616e73616374696f6e207369676e6564604082015273081dda5d1a081ddc9bdb99c818da185a5b88125160621b606082015260800190565b6020808252603c908201527f5369676e61747572652070726f766964656420666f7220454f41207472616e7360408201527f616374696f6e20657865637574696f6e20697320696e76616c69642e00000000606082015260800190565b60208082526023908201527f46656520776173206e6f74207472616e7366657272656420746f2072656c617960408201526232b91760e91b606082015260800190565b6020808252602c908201527f56616c756520636f756c64206e6f74206265207472616e73666572726564207460408201526b37903932b1b4b834b2b73a1760a11b606082015260800190565b6020808252602d908201527f56616c7565206973206e6f6e7a65726f2062757420696e70757420646174612060408201526c3bb0b990383937bb34b232b21760991b606082015260800190565b60208082526034908201527f5472616e73616374696f6e206e6f6e636520646f6573206e6f74206d61746368604082015273103a34329032bc3832b1ba32b2103737b731b29760611b606082015260800190565b60005b838110156120d45780820151838201526020016120bc565b838111156120e3576000848401525b5050505056fe50726f766964656420524c50206c6973742065786365656473206d6178206c697374206c656e6774682e536166654d6174683a206d756c7469706c69636174696f6e206f766572666c6f77",
  "linkReferences": {},
  "deployedLinkReferences": {}
}